{
  "transactions": [
    {
      "hash": "0x0dcb6ecd8b54bdb3de95d5850f06383c2caacfa574499deedf670f8354ef627a",
      "transactionType": "CALL",
      "contractName": null,
      "contractAddress": "0x9fcb8dbbb93f908f0ff2f9b425594a0511dd71c4",
      "function": "setReferrerAddress(uint24,address)",
      "arguments": [
        "200",
        "0x24cdc98297798B36ad1B82645002D7A081F61543"
      ],
      "transaction": {
        "from": "0xfbe09b7a6c6cc3a72b4ca41cdd9c88ac62bb7937",
        "to": "0x9fcb8dbbb93f908f0ff2f9b425594a0511dd71c4",
        "gas": "0x983a",
        "value": "0x0",
        "input": "0xa2abf7f200000000000000000000000000000000000000000000000000000000000000c800000000000000000000000024cdc98297798b36ad1b82645002d7a081f61543",
        "nonce": "0x133",
        "chainId": "0xaa36a7"
      },
      "additionalContracts": [],
      "isFixedGasLimit": false
    },
    {
      "hash": "0x6e4f43a6dd3e7ff568068d9e7c62f044c9798118b201298c0e4fec1b6cede775",
      "transactionType": "CALL",
      "contractName": null,
      "contractAddress": "0x9fcb8dbbb93f908f0ff2f9b425594a0511dd71c4",
      "function": "setReferrerAddress(uint24,address)",
      "arguments": [
        "201",
        "0x00cbbb02dB74eEd073086F47e1c156252bE4306F"
      ],
      "transaction": {
        "from": "0xfbe09b7a6c6cc3a72b4ca41cdd9c88ac62bb7937",
        "to": "0x9fcb8dbbb93f908f0ff2f9b425594a0511dd71c4",
        "gas": "0xa11d",
        "value": "0x0",
        "input": "0xa2abf7f200000000000000000000000000000000000000000000000000000000000000c900000000000000000000000000cbbb02db74eed073086f47e1c156252be4306f",
        "nonce": "0x134",
        "chainId": "0xaa36a7"
      },
      "additionalContracts": [],
      "isFixedGasLimit": false
    },
    {
      "hash": "0x492c2180c7db44cde490b5a42245a74d7fb49c2a0cc5896fc02f3b82996711cf",
      "transactionType": "CALL",
      "contractName": null,
      "contractAddress": "0x9fcb8dbbb93f908f0ff2f9b425594a0511dd71c4",
      "function": "setReferrerAddress(uint24,address)",
      "arguments": [
        "202",
        "0x6Ff92AE132E844B09DAe0CFE6cc79dBa6968D69a"
      ],
      "transaction": {
        "from": "0xfbe09b7a6c6cc3a72b4ca41cdd9c88ac62bb7937",
        "to": "0x9fcb8dbbb93f908f0ff2f9b425594a0511dd71c4",
        "gas": "0x983a",
        "value": "0x0",
        "input": "0xa2abf7f200000000000000000000000000000000000000000000000000000000000000ca0000000000000000000000006ff92ae132e844b09dae0cfe6cc79dba6968d69a",
        "nonce": "0x135",
        "chainId": "0xaa36a7"
      },
      "additionalContracts": [],
      "isFixedGasLimit": false
    },
    {
      "hash": "0xfd4de4fb448289b9f0c3967b19e2a927b093aa46e74de639502288df2b8d0523",
      "transactionType": "CALL",
      "contractName": null,
      "contractAddress": "0x9fcb8dbbb93f908f0ff2f9b425594a0511dd71c4",
      "function": "setReferrerAddress(uint24,address)",
      "arguments": [
        "203",
        "0x55d73bAd83eA5577fB3b7f099b0689aD034171D4"
      ],
      "transaction": {
        "from": "0xfbe09b7a6c6cc3a72b4ca41cdd9c88ac62bb7937",
        "to": "0x9fcb8dbbb93f908f0ff2f9b425594a0511dd71c4",
        "gas": "0x983a",
        "value": "0x0",
        "input": "0xa2abf7f200000000000000000000000000000000000000000000000000000000000000cb00000000000000000000000055d73bad83ea5577fb3b7f099b0689ad034171d4",
        "nonce": "0x136",
        "chainId": "0xaa36a7"
      },
      "additionalContracts": [],
      "isFixedGasLimit": false
    },
    {
      "hash": "0x27fc4a2bf88f1c272b3a93e029a7dbd91d3d7ac4859f40a22df478d65481d70d",
      "transactionType": "CALL",
      "contractName": null,
      "contractAddress": "0x9fcb8dbbb93f908f0ff2f9b425594a0511dd71c4",
      "function": "setReferrerAddress(uint24,address)",
      "arguments": [
        "204",
        "0x1eE9e2e02864595964CA0B55c1bFbA689EEC4D88"
      ],
      "transaction": {
        "from": "0xfbe09b7a6c6cc3a72b4ca41cdd9c88ac62bb7937",
        "to": "0x9fcb8dbbb93f908f0ff2f9b425594a0511dd71c4",
        "gas": "0x112de",
        "value": "0x0",
        "input": "0xa2abf7f200000000000000000000000000000000000000000000000000000000000000cc0000000000000000000000001ee9e2e02864595964ca0b55c1bfba689eec4d88",
        "nonce": "0x137",
        "chainId": "0xaa36a7"
      },
      "additionalContracts": [],
      "isFixedGasLimit": false
    },
    {
      "hash": "0xdcde66ddd2c6098d44c4d3d20c3f789fe8d267594b3bda102e28c55110756227",
      "transactionType": "CALL",
      "contractName": null,
      "contractAddress": "0x9fcb8dbbb93f908f0ff2f9b425594a0511dd71c4",
      "function": "setReferrerAddress(uint24,address)",
      "arguments": [
        "205",
        "0x04665Ece39dec260886285CE4Cf701E3bd576765"
      ],
      "transaction": {
        "from": "0xfbe09b7a6c6cc3a72b4ca41cdd9c88ac62bb7937",
        "to": "0x9fcb8dbbb93f908f0ff2f9b425594a0511dd71c4",
        "gas": "0x112de",
        "value": "0x0",
        "input": "0xa2abf7f200000000000000000000000000000000000000000000000000000000000000cd00000000000000000000000004665ece39dec260886285ce4cf701e3bd576765",
        "nonce": "0x138",
        "chainId": "0xaa36a7"
      },
      "additionalContracts": [],
      "isFixedGasLimit": false
    },
    {
      "hash": "0xad6785b82335df2b34c830d4ccf56f2c81c542e7aa849324f34c997038435883",
      "transactionType": "CALL",
      "contractName": null,
      "contractAddress": "0x9fcb8dbbb93f908f0ff2f9b425594a0511dd71c4",
      "function": "setReferrerAddress(uint24,address)",
      "arguments": [
        "206",
        "0x6F3C146d522bC8187813C14A4e134F2E67c430b6"
      ],
      "transaction": {
        "from": "0xfbe09b7a6c6cc3a72b4ca41cdd9c88ac62bb7937",
        "to": "0x9fcb8dbbb93f908f0ff2f9b425594a0511dd71c4",
        "gas": "0x112de",
        "value": "0x0",
        "input": "0xa2abf7f200000000000000000000000000000000000000000000000000000000000000ce0000000000000000000000006f3c146d522bc8187813c14a4e134f2e67c430b6",
        "nonce": "0x139",
        "chainId": "0xaa36a7"
      },
      "additionalContracts": [],
      "isFixedGasLimit": false
    },
    {
      "hash": "0x1bb939d8c4162c44b0d852a08fc0e70d5b2aa5c567dfde8f71174927af7e71d6",
      "transactionType": "CALL",
      "contractName": null,
      "contractAddress": "0x9fcb8dbbb93f908f0ff2f9b425594a0511dd71c4",
      "function": "setReferrerAddress(uint24,address)",
      "arguments": [
        "207",
        "0x4A73A8627727F09E0e25518DF6A64f58BCa4Cb99"
      ],
      "transaction": {
        "from": "0xfbe09b7a6c6cc3a72b4ca41cdd9c88ac62bb7937",
        "to": "0x9fcb8dbbb93f908f0ff2f9b425594a0511dd71c4",
        "gas": "0x112de",
        "value": "0x0",
        "input": "0xa2abf7f200000000000000000000000000000000000000000000000000000000000000cf0000000000000000000000004a73a8627727f09e0e25518df6a64f58bca4cb99",
        "nonce": "0x13a",
        "chainId": "0xaa36a7"
      },
      "additionalContracts": [],
      "isFixedGasLimit": false
    },
    {
      "hash": "0xafef632ec9c0aa82aac76265ae58434e1160cca0e353734c725670b1ec35764a",
      "transactionType": "CALL",
      "contractName": null,
      "contractAddress": "0x9fcb8dbbb93f908f0ff2f9b425594a0511dd71c4",
      "function": "setReferrerAddress(uint24,address)",
      "arguments": [
        "208",
        "0x477C95bfeDEa3Eeb663EDD4033CEb037F241AA69"
      ],
      "transaction": {
        "from": "0xfbe09b7a6c6cc3a72b4ca41cdd9c88ac62bb7937",
        "to": "0x9fcb8dbbb93f908f0ff2f9b425594a0511dd71c4",
        "gas": "0x112de",
        "value": "0x0",
        "input": "0xa2abf7f200000000000000000000000000000000000000000000000000000000000000d0000000000000000000000000477c95bfedea3eeb663edd4033ceb037f241aa69",
        "nonce": "0x13b",
        "chainId": "0xaa36a7"
      },
      "additionalContracts": [],
      "isFixedGasLimit": false
    },
    {
      "hash": "0xc80aba8ad9138743d3bd392285e560a16b051a97bf3db446217a2da192a307a8",
      "transactionType": "CALL",
      "contractName": null,
      "contractAddress": "0x9fcb8dbbb93f908f0ff2f9b425594a0511dd71c4",
      "function": "setReferrerAddress(uint24,address)",
      "arguments": [
        "209",
        "0x9928e7f574fcFf95Ff5BC2475e67CCCe913D26e7"
      ],
      "transaction": {
        "from": "0xfbe09b7a6c6cc3a72b4ca41cdd9c88ac62bb7937",
        "to": "0x9fcb8dbbb93f908f0ff2f9b425594a0511dd71c4",
        "gas": "0x112de",
        "value": "0x0",
        "input": "0xa2abf7f200000000000000000000000000000000000000000000000000000000000000d10000000000000000000000009928e7f574fcff95ff5bc2475e67ccce913d26e7",
        "nonce": "0x13c",
        "chainId": "0xaa36a7"
      },
      "additionalContracts": [],
      "isFixedGasLimit": false
    },
    {
      "hash": "0xf74f7b7c86f1525a32b221a40d95786f716d0a6df58f390e602bef67ec7ac9c4",
      "transactionType": "CALL",
      "contractName": null,
      "contractAddress": "0x9fcb8dbbb93f908f0ff2f9b425594a0511dd71c4",
      "function": "setReferrerAddress(uint24,address)",
      "arguments": [
        "210",
        "0xD9738B3A188928B3fF8c53a59e00720Cd678704D"
      ],
      "transaction": {
        "from": "0xfbe09b7a6c6cc3a72b4ca41cdd9c88ac62bb7937",
        "to": "0x9fcb8dbbb93f908f0ff2f9b425594a0511dd71c4",
        "gas": "0x10388",
        "value": "0x0",
        "input": "0xa2abf7f200000000000000000000000000000000000000000000000000000000000000d2000000000000000000000000d9738b3a188928b3ff8c53a59e00720cd678704d",
        "nonce": "0x13d",
        "chainId": "0xaa36a7"
      },
      "additionalContracts": [],
      "isFixedGasLimit": false
    },
    {
      "hash": "0x049140264b26de176590f3c77a502ede75a7f4d96c481ce0eabc9f18971981e3",
      "transactionType": "CALL",
      "contractName": null,
      "contractAddress": "0x9fcb8dbbb93f908f0ff2f9b425594a0511dd71c4",
      "function": "setReferrerAddress(uint24,address)",
      "arguments": [
        "211",
        "0x1A142623399c7c63bF0CCea3C033DED60B2edDBe"
      ],
      "transaction": {
        "from": "0xfbe09b7a6c6cc3a72b4ca41cdd9c88ac62bb7937",
        "to": "0x9fcb8dbbb93f908f0ff2f9b425594a0511dd71c4",
        "gas": "0x112de",
        "value": "0x0",
        "input": "0xa2abf7f200000000000000000000000000000000000000000000000000000000000000d30000000000000000000000001a142623399c7c63bf0ccea3c033ded60b2eddbe",
        "nonce": "0x13e",
        "chainId": "0xaa36a7"
      },
      "additionalContracts": [],
      "isFixedGasLimit": false
    },
    {
      "hash": "0x6f70e655b2201424e372b3fd516389688b11e6df10899256ba790d9f8a1b5641",
      "transactionType": "CALL",
      "contractName": null,
      "contractAddress": "0x9fcb8dbbb93f908f0ff2f9b425594a0511dd71c4",
      "function": "setReferrerAddress(uint24,address)",
      "arguments": [
        "212",
        "0x979B75baB70E08E3697EE966A9e66e236651aA3F"
      ],
      "transaction": {
        "from": "0xfbe09b7a6c6cc3a72b4ca41cdd9c88ac62bb7937",
        "to": "0x9fcb8dbbb93f908f0ff2f9b425594a0511dd71c4",
        "gas": "0x112de",
        "value": "0x0",
        "input": "0xa2abf7f200000000000000000000000000000000000000000000000000000000000000d4000000000000000000000000979b75bab70e08e3697ee966a9e66e236651aa3f",
        "nonce": "0x13f",
        "chainId": "0xaa36a7"
      },
      "additionalContracts": [],
      "isFixedGasLimit": false
    },
    {
      "hash": "0xc48d603d818d46285d53785ac49ef1c94f42c204d4088ed126e869ab98d45e63",
      "transactionType": "CALL",
      "contractName": null,
      "contractAddress": "0x9fcb8dbbb93f908f0ff2f9b425594a0511dd71c4",
      "function": "setReferrerAddress(uint24,address)",
      "arguments": [
        "213",
        "0x5bA952b03bc2006F1a3856094F373DCeF1F683bb"
      ],
      "transaction": {
        "from": "0xfbe09b7a6c6cc3a72b4ca41cdd9c88ac62bb7937",
        "to": "0x9fcb8dbbb93f908f0ff2f9b425594a0511dd71c4",
        "gas": "0x10388",
        "value": "0x0",
        "input": "0xa2abf7f200000000000000000000000000000000000000000000000000000000000000d50000000000000000000000005ba952b03bc2006f1a3856094f373dcef1f683bb",
        "nonce": "0x140",
        "chainId": "0xaa36a7"
      },
      "additionalContracts": [],
      "isFixedGasLimit": false
    },
    {
      "hash": "0x6749028ff4bd3e8c94eecb5bec42d05aaf589aa26fa322bdff038972b4fabbdb",
      "transactionType": "CALL",
      "contractName": null,
      "contractAddress": "0x9fcb8dbbb93f908f0ff2f9b425594a0511dd71c4",
      "function": "setReferrerAddress(uint24,address)",
      "arguments": [
        "214",
        "0xe9fD65d3beb49AdF17d4088657d7596F1DD3D9Ca"
      ],
      "transaction": {
        "from": "0xfbe09b7a6c6cc3a72b4ca41cdd9c88ac62bb7937",
        "to": "0x9fcb8dbbb93f908f0ff2f9b425594a0511dd71c4",
        "gas": "0x112de",
        "value": "0x0",
        "input": "0xa2abf7f200000000000000000000000000000000000000000000000000000000000000d6000000000000000000000000e9fd65d3beb49adf17d4088657d7596f1dd3d9ca",
        "nonce": "0x141",
        "chainId": "0xaa36a7"
      },
      "additionalContracts": [],
      "isFixedGasLimit": false
    },
    {
      "hash": "0xef37a2d40f03b66ad4484c6332d7f455fab2e4089e8964d776b4e97452a3d185",
      "transactionType": "CALL",
      "contractName": null,
      "contractAddress": "0x9fcb8dbbb93f908f0ff2f9b425594a0511dd71c4",
      "function": "setReferrerAddress(uint24,address)",
      "arguments": [
        "215",
        "0xFE36fA1294009C6C0Abd1f7F1F4E0FAcE79F5891"
      ],
      "transaction": {
        "from": "0xfbe09b7a6c6cc3a72b4ca41cdd9c88ac62bb7937",
        "to": "0x9fcb8dbbb93f908f0ff2f9b425594a0511dd71c4",
        "gas": "0x10388",
        "value": "0x0",
        "input": "0xa2abf7f200000000000000000000000000000000000000000000000000000000000000d7000000000000000000000000fe36fa1294009c6c0abd1f7f1f4e0face79f5891",
        "nonce": "0x142",
        "chainId": "0xaa36a7"
      },
      "additionalContracts": [],
      "isFixedGasLimit": false
    },
    {
      "hash": null,
      "transactionType": "CALL",
      "contractName": null,
      "contractAddress": "0x9fcb8dbbb93f908f0ff2f9b425594a0511dd71c4",
      "function": "setReferrerAddress(uint24,address)",
      "arguments": [
        "216",
        "0x3865f07d17424d08417033d5B4F97f4eDF41F2f0"
      ],
      "transaction": {
        "from": "0xfbe09b7a6c6cc3a72b4ca41cdd9c88ac62bb7937",
        "to": "0x9fcb8dbbb93f908f0ff2f9b425594a0511dd71c4",
        "gas": "0x112de",
        "value": "0x0",
        "input": "0xa2abf7f200000000000000000000000000000000000000000000000000000000000000d80000000000000000000000003865f07d17424d08417033d5b4f97f4edf41f2f0",
        "nonce": "0x143",
        "chainId": "0xaa36a7"
      },
      "additionalContracts": [],
      "isFixedGasLimit": false
    },
    {
      "hash": null,
      "transactionType": "CALL",
      "contractName": null,
      "contractAddress": "0x9fcb8dbbb93f908f0ff2f9b425594a0511dd71c4",
      "function": "setReferrerAddress(uint24,address)",
      "arguments": [
        "217",
        "0x8084f088eBf166EBFd3df462284C530B0C9C48e8"
      ],
      "transaction": {
        "from": "0xfbe09b7a6c6cc3a72b4ca41cdd9c88ac62bb7937",
        "to": "0x9fcb8dbbb93f908f0ff2f9b425594a0511dd71c4",
        "gas": "0x112de",
        "value": "0x0",
        "input": "0xa2abf7f200000000000000000000000000000000000000000000000000000000000000d90000000000000000000000008084f088ebf166ebfd3df462284c530b0c9c48e8",
        "nonce": "0x144",
        "chainId": "0xaa36a7"
      },
      "additionalContracts": [],
      "isFixedGasLimit": false
    },
    {
      "hash": null,
      "transactionType": "CALL",
      "contractName": null,
      "contractAddress": "0x9fcb8dbbb93f908f0ff2f9b425594a0511dd71c4",
      "function": "setReferrerAddress(uint24,address)",
      "arguments": [
        "218",
        "0x8e1343508cbA64EB1AE15C17182685b4e38F37e1"
      ],
      "transaction": {
        "from": "0xfbe09b7a6c6cc3a72b4ca41cdd9c88ac62bb7937",
        "to": "0x9fcb8dbbb93f908f0ff2f9b425594a0511dd71c4",
        "gas": "0x112de",
        "value": "0x0",
        "input": "0xa2abf7f200000000000000000000000000000000000000000000000000000000000000da0000000000000000000000008e1343508cba64eb1ae15c17182685b4e38f37e1",
        "nonce": "0x145",
        "chainId": "0xaa36a7"
      },
      "additionalContracts": [],
      "isFixedGasLimit": false
    },
    {
      "hash": null,
      "transactionType": "CALL",
      "contractName": null,
      "contractAddress": "0x9fcb8dbbb93f908f0ff2f9b425594a0511dd71c4",
      "function": "setReferrerAddress(uint24,address)",
      "arguments": [
        "219",
        "0x0274F78B2372d6d6d1a6d3777D9ee04FfDb99162"
      ],
      "transaction": {
        "from": "0xfbe09b7a6c6cc3a72b4ca41cdd9c88ac62bb7937",
        "to": "0x9fcb8dbbb93f908f0ff2f9b425594a0511dd71c4",
        "gas": "0x112de",
        "value": "0x0",
        "input": "0xa2abf7f200000000000000000000000000000000000000000000000000000000000000db0000000000000000000000000274f78b2372d6d6d1a6d3777d9ee04ffdb99162",
        "nonce": "0x146",
        "chainId": "0xaa36a7"
      },
      "additionalContracts": [],
      "isFixedGasLimit": false
    },
    {
      "hash": null,
      "transactionType": "CALL",
      "contractName": null,
      "contractAddress": "0x9fcb8dbbb93f908f0ff2f9b425594a0511dd71c4",
      "function": "setReferrerAddress(uint24,address)",
      "arguments": [
        "220",
        "0xdC63B8d8A4ecB425a569156d6a0B7F87360C8ddF"
      ],
      "transaction": {
        "from": "0xfbe09b7a6c6cc3a72b4ca41cdd9c88ac62bb7937",
        "to": "0x9fcb8dbbb93f908f0ff2f9b425594a0511dd71c4",
        "gas": "0x112de",
        "value": "0x0",
        "input": "0xa2abf7f200000000000000000000000000000000000000000000000000000000000000dc000000000000000000000000dc63b8d8a4ecb425a569156d6a0b7f87360c8ddf",
        "nonce": "0x147",
        "chainId": "0xaa36a7"
      },
      "additionalContracts": [],
      "isFixedGasLimit": false
    },
    {
      "hash": null,
      "transactionType": "CALL",
      "contractName": null,
      "contractAddress": "0x9fcb8dbbb93f908f0ff2f9b425594a0511dd71c4",
      "function": "setReferrerAddress(uint24,address)",
      "arguments": [
        "221",
        "0xd566Ac97be0aB14D23ca9E5bfCe7DAa264eCcB73"
      ],
      "transaction": {
        "from": "0xfbe09b7a6c6cc3a72b4ca41cdd9c88ac62bb7937",
        "to": "0x9fcb8dbbb93f908f0ff2f9b425594a0511dd71c4",
        "gas": "0x112de",
        "value": "0x0",
        "input": "0xa2abf7f200000000000000000000000000000000000000000000000000000000000000dd000000000000000000000000d566ac97be0ab14d23ca9e5bfce7daa264eccb73",
        "nonce": "0x148",
        "chainId": "0xaa36a7"
      },
      "additionalContracts": [],
      "isFixedGasLimit": false
    },
    {
      "hash": null,
      "transactionType": "CALL",
      "contractName": null,
      "contractAddress": "0x9fcb8dbbb93f908f0ff2f9b425594a0511dd71c4",
      "function": "setReferrerAddress(uint24,address)",
      "arguments": [
        "222",
        "0x6CFf836559e5aF7dCA1528dCb23E2692C4094A76"
      ],
      "transaction": {
        "from": "0xfbe09b7a6c6cc3a72b4ca41cdd9c88ac62bb7937",
        "to": "0x9fcb8dbbb93f908f0ff2f9b425594a0511dd71c4",
        "gas": "0x112de",
        "value": "0x0",
        "input": "0xa2abf7f200000000000000000000000000000000000000000000000000000000000000de0000000000000000000000006cff836559e5af7dca1528dcb23e2692c4094a76",
        "nonce": "0x149",
        "chainId": "0xaa36a7"
      },
      "additionalContracts": [],
      "isFixedGasLimit": false
    },
    {
      "hash": null,
      "transactionType": "CALL",
      "contractName": null,
      "contractAddress": "0x9fcb8dbbb93f908f0ff2f9b425594a0511dd71c4",
      "function": "setReferrerAddress(uint24,address)",
      "arguments": [
        "223",
        "0x7E9948f74E9752F7F48382aafC833FabC9Ab3B22"
      ],
      "transaction": {
        "from": "0xfbe09b7a6c6cc3a72b4ca41cdd9c88ac62bb7937",
        "to": "0x9fcb8dbbb93f908f0ff2f9b425594a0511dd71c4",
        "gas": "0x112de",
        "value": "0x0",
        "input": "0xa2abf7f200000000000000000000000000000000000000000000000000000000000000df0000000000000000000000007e9948f74e9752f7f48382aafc833fabc9ab3b22",
        "nonce": "0x14a",
        "chainId": "0xaa36a7"
      },
      "additionalContracts": [],
      "isFixedGasLimit": false
    },
    {
      "hash": null,
      "transactionType": "CALL",
      "contractName": null,
      "contractAddress": "0x9fcb8dbbb93f908f0ff2f9b425594a0511dd71c4",
      "function": "setReferrerAddress(uint24,address)",
      "arguments": [
        "224",
        "0x5ea24a8b88B3352920cc0397dc56feD4a586eb04"
      ],
      "transaction": {
        "from": "0xfbe09b7a6c6cc3a72b4ca41cdd9c88ac62bb7937",
        "to": "0x9fcb8dbbb93f908f0ff2f9b425594a0511dd71c4",
        "gas": "0x112de",
        "value": "0x0",
        "input": "0xa2abf7f200000000000000000000000000000000000000000000000000000000000000e00000000000000000000000005ea24a8b88b3352920cc0397dc56fed4a586eb04",
        "nonce": "0x14b",
        "chainId": "0xaa36a7"
      },
      "additionalContracts": [],
      "isFixedGasLimit": false
    },
    {
      "hash": null,
      "transactionType": "CALL",
      "contractName": null,
      "contractAddress": "0x9fcb8dbbb93f908f0ff2f9b425594a0511dd71c4",
      "function": "setReferrerAddress(uint24,address)",
      "arguments": [
        "225",
        "0x71D2f75510FA7B5D09D9a763BfAAc0B12887cE29"
      ],
      "transaction": {
        "from": "0xfbe09b7a6c6cc3a72b4ca41cdd9c88ac62bb7937",
        "to": "0x9fcb8dbbb93f908f0ff2f9b425594a0511dd71c4",
        "gas": "0x112de",
        "value": "0x0",
        "input": "0xa2abf7f200000000000000000000000000000000000000000000000000000000000000e100000000000000000000000071d2f75510fa7b5d09d9a763bfaac0b12887ce29",
        "nonce": "0x14c",
        "chainId": "0xaa36a7"
      },
      "additionalContracts": [],
      "isFixedGasLimit": false
    },
    {
      "hash": null,
      "transactionType": "CALL",
      "contractName": null,
      "contractAddress": "0x9fcb8dbbb93f908f0ff2f9b425594a0511dd71c4",
      "function": "setReferrerAddress(uint24,address)",
      "arguments": [
        "226",
        "0x6d882925377e9fA250FFd6b62164AB4084DBbCB7"
      ],
      "transaction": {
        "from": "0xfbe09b7a6c6cc3a72b4ca41cdd9c88ac62bb7937",
        "to": "0x9fcb8dbbb93f908f0ff2f9b425594a0511dd71c4",
        "gas": "0x112de",
        "value": "0x0",
        "input": "0xa2abf7f200000000000000000000000000000000000000000000000000000000000000e20000000000000000000000006d882925377e9fa250ffd6b62164ab4084dbbcb7",
        "nonce": "0x14d",
        "chainId": "0xaa36a7"
      },
      "additionalContracts": [],
      "isFixedGasLimit": false
    },
    {
      "hash": null,
      "transactionType": "CALL",
      "contractName": null,
      "contractAddress": "0x9fcb8dbbb93f908f0ff2f9b425594a0511dd71c4",
      "function": "setReferrerAddress(uint24,address)",
      "arguments": [
        "227",
        "0xe7B09bAba6B33f6295E34371DFAFF735918bAF49"
      ],
      "transaction": {
        "from": "0xfbe09b7a6c6cc3a72b4ca41cdd9c88ac62bb7937",
        "to": "0x9fcb8dbbb93f908f0ff2f9b425594a0511dd71c4",
        "gas": "0x112de",
        "value": "0x0",
        "input": "0xa2abf7f200000000000000000000000000000000000000000000000000000000000000e3000000000000000000000000e7b09baba6b33f6295e34371dfaff735918baf49",
        "nonce": "0x14e",
        "chainId": "0xaa36a7"
      },
      "additionalContracts": [],
      "isFixedGasLimit": false
    },
    {
      "hash": null,
      "transactionType": "CALL",
      "contractName": null,
      "contractAddress": "0x9fcb8dbbb93f908f0ff2f9b425594a0511dd71c4",
      "function": "setReferrerAddress(uint24,address)",
      "arguments": [
        "228",
        "0x698fE5C3696053Bc22AE300f1bD1C3C20a1e5c96"
      ],
      "transaction": {
        "from": "0xfbe09b7a6c6cc3a72b4ca41cdd9c88ac62bb7937",
        "to": "0x9fcb8dbbb93f908f0ff2f9b425594a0511dd71c4",
        "gas": "0x112de",
        "value": "0x0",
        "input": "0xa2abf7f200000000000000000000000000000000000000000000000000000000000000e4000000000000000000000000698fe5c3696053bc22ae300f1bd1c3c20a1e5c96",
        "nonce": "0x14f",
        "chainId": "0xaa36a7"
      },
      "additionalContracts": [],
      "isFixedGasLimit": false
    },
    {
      "hash": null,
      "transactionType": "CALL",
      "contractName": null,
      "contractAddress": "0x9fcb8dbbb93f908f0ff2f9b425594a0511dd71c4",
      "function": "setReferrerAddress(uint24,address)",
      "arguments": [
        "229",
        "0xF689f6A2EB5589e772Fe3627b8F211658E8B84c9"
      ],
      "transaction": {
        "from": "0xfbe09b7a6c6cc3a72b4ca41cdd9c88ac62bb7937",
        "to": "0x9fcb8dbbb93f908f0ff2f9b425594a0511dd71c4",
        "gas": "0x112de",
        "value": "0x0",
        "input": "0xa2abf7f200000000000000000000000000000000000000000000000000000000000000e5000000000000000000000000f689f6a2eb5589e772fe3627b8f211658e8b84c9",
        "nonce": "0x150",
        "chainId": "0xaa36a7"
      },
      "additionalContracts": [],
      "isFixedGasLimit": false
    }
  ],
  "receipts": [
    {
      "status": "0x1",
      "cumulativeGasUsed": "0xd76e2a",
      "logs": [
        {
          "address": "0x9fcb8dbbb93f908f0ff2f9b425594a0511dd71c4",
          "topics": [
            "0xee244915fe1e8426387fb7d52512a65e3d74b7efbb2d61339a662ab236c9e798",
            "0x00000000000000000000000000000000000000000000000000000000000000c8",
            "0x00000000000000000000000024cdc98297798b36ad1b82645002d7a081f61543"
          ],
          "data": "0x",
          "blockHash": "0x211c6af6798508acb623522ff6c25051909449818ceabe76ea081a1ec5d1b07d",
          "blockNumber": "0x670fff",
          "transactionHash": "0x0dcb6ecd8b54bdb3de95d5850f06383c2caacfa574499deedf670f8354ef627a",
          "transactionIndex": "0x37",
          "logIndex": "0x4f",
          "removed": false
        }
      ],
      "logsBloom": "0x00000000000000200000000000000020000000000000000000000000800000080000000000000000000000000000000000000000000000100000000000000000000000000000000004000000000000000000000000000000000801000000000000000000000000000000000000000000800080000000000000000000000000000000000000000000000000000000000000000000000000000000000000000000000000000000000000000000000000000000000000000000000000000000000000000000000000000000000000000000000000000000000000000000000000000000000000000000000008000000000000000000000000000000000008000000",
      "type": "0x2",
      "transactionHash": "0x0dcb6ecd8b54bdb3de95d5850f06383c2caacfa574499deedf670f8354ef627a",
      "transactionIndex": "0x37",
      "blockHash": "0x211c6af6798508acb623522ff6c25051909449818ceabe76ea081a1ec5d1b07d",
      "blockNumber": "0x670fff",
      "gasUsed": "0x6e36",
      "effectiveGasPrice": "0x466e510c75",
      "from": "0xfbe09b7a6c6cc3a72b4ca41cdd9c88ac62bb7937",
      "to": "0x9fcb8dbbb93f908f0ff2f9b425594a0511dd71c4",
      "contractAddress": null
    },
    {
      "status": "0x1",
      "cumulativeGasUsed": "0x133ec0c",
      "logs": [
        {
          "address": "0x9fcb8dbbb93f908f0ff2f9b425594a0511dd71c4",
          "topics": [
            "0xee244915fe1e8426387fb7d52512a65e3d74b7efbb2d61339a662ab236c9e798",
            "0x00000000000000000000000000000000000000000000000000000000000000c9",
            "0x00000000000000000000000000cbbb02db74eed073086f47e1c156252be4306f"
          ],
          "data": "0x",
          "blockHash": "0x206967096cf089de389b96d254c8e885336a5b5d480ed705f91eec14a62431b3",
          "blockNumber": "0x671000",
          "transactionHash": "0x6e4f43a6dd3e7ff568068d9e7c62f044c9798118b201298c0e4fec1b6cede775",
          "transactionIndex": "0x30",
          "logIndex": "0x45",
          "removed": false
        }
      ],
      "logsBloom": "0x00000000000000200000000000000000000000000000000000000000002000080000000000000000400000000000000000000000000000100000000000000000000000000000000004000000000000000000000000000000000001000000000000000000000000000000000000000000000000004000000000000000000000000000000000000000000000000000000000000000000000000000000000000000000000000000000000000000000000000000000000000000000400000000000000000000000000000000000000000000000800000000000000000000000000000000000000000000000000000000080000000000000000000000000008000000",
      "type": "0x2",
      "transactionHash": "0x6e4f43a6dd3e7ff568068d9e7c62f044c9798118b201298c0e4fec1b6cede775",
      "transactionIndex": "0x30",
      "blockHash": "0x206967096cf089de389b96d254c8e885336a5b5d480ed705f91eec14a62431b3",
      "blockNumber": "0x671000",
      "gasUsed": "0x6e2a",
      "effectiveGasPrice": "0x46a676b661",
      "from": "0xfbe09b7a6c6cc3a72b4ca41cdd9c88ac62bb7937",
      "to": "0x9fcb8dbbb93f908f0ff2f9b425594a0511dd71c4",
      "contractAddress": null
    },
    {
      "status": "0x1",
      "cumulativeGasUsed": "0x10a4491",
      "logs": [
        {
          "address": "0x9fcb8dbbb93f908f0ff2f9b425594a0511dd71c4",
          "topics": [
            "0xee244915fe1e8426387fb7d52512a65e3d74b7efbb2d61339a662ab236c9e798",
            "0x00000000000000000000000000000000000000000000000000000000000000ca",
            "0x0000000000000000000000006ff92ae132e844b09dae0cfe6cc79dba6968d69a"
          ],
          "data": "0x",
          "blockHash": "0xddb99c2e1125f15ef2e7d367bfa24d1fb0cbe8b0ae431cd720e792968be9c43b",
          "blockNumber": "0x671001",
          "transactionHash": "0x492c2180c7db44cde490b5a42245a74d7fb49c2a0cc5896fc02f3b82996711cf",
          "transactionIndex": "0x29",
          "logIndex": "0x49",
          "removed": false
        }
      ],
      "logsBloom": "0x00000000000000200000000000000000000000000000800000000000000000080000000000000000000000000000000000100000000000101000000000000000000000000000000004000000000000000000000000000000000001000000000000000000000000000000000000000000000000000000000000000000000002000000000000000000000000000000000000000000000000000000000000000000000000000080000200000000000000000000000000000000000000000000000000000000000000000000000000000000000000000000000000000000000000000000000000000000000000000000000000000000000000000000000008000000",
      "type": "0x2",
      "transactionHash": "0x492c2180c7db44cde490b5a42245a74d7fb49c2a0cc5896fc02f3b82996711cf",
      "transactionIndex": "0x29",
      "blockHash": "0xddb99c2e1125f15ef2e7d367bfa24d1fb0cbe8b0ae431cd720e792968be9c43b",
      "blockNumber": "0x671001",
      "gasUsed": "0x6e36",
      "effectiveGasPrice": "0x4afe4d8c34",
      "from": "0xfbe09b7a6c6cc3a72b4ca41cdd9c88ac62bb7937",
      "to": "0x9fcb8dbbb93f908f0ff2f9b425594a0511dd71c4",
      "contractAddress": null
    },
    {
      "status": "0x1",
      "cumulativeGasUsed": "0x5f7464",
      "logs": [
        {
          "address": "0x9fcb8dbbb93f908f0ff2f9b425594a0511dd71c4",
          "topics": [
            "0xee244915fe1e8426387fb7d52512a65e3d74b7efbb2d61339a662ab236c9e798",
            "0x00000000000000000000000000000000000000000000000000000000000000cb",
            "0x00000000000000000000000055d73bad83ea5577fb3b7f099b0689ad034171d4"
          ],
          "data": "0x",
          "blockHash": "0x7031a1e196015b485cc5bb755afe16c723dfb37e882f1373e11e912defa9390b",
          "blockNumber": "0x671002",
          "transactionHash": "0xfd4de4fb448289b9f0c3967b19e2a927b093aa46e74de639502288df2b8d0523",
          "transactionIndex": "0x2b",
          "logIndex": "0x26",
          "removed": false
        }
      ],
      "logsBloom": "0x00000000000040200000000000000000000000000000000000000000000000080000000000000400000000000000000000000000000000100000000000000000000000000000000004000000000000000000000000000000000001000000000000000000000000000000000000000000000000000000000000000000000000000000000000000000000000000000000000002000000000000000080000000000000000000000000000000000000000000000000000000000000000000000400000000000000000000000000000000000000000000000000000000000000000000000000000000000000000000000100000000000000000000000000008000000",
      "type": "0x2",
      "transactionHash": "0xfd4de4fb448289b9f0c3967b19e2a927b093aa46e74de639502288df2b8d0523",
      "transactionIndex": "0x2b",
      "blockHash": "0x7031a1e196015b485cc5bb755afe16c723dfb37e882f1373e11e912defa9390b",
      "blockNumber": "0x671002",
      "gasUsed": "0x6e36",
      "effectiveGasPrice": "0x4da85e11c4",
      "from": "0xfbe09b7a6c6cc3a72b4ca41cdd9c88ac62bb7937",
      "to": "0x9fcb8dbbb93f908f0ff2f9b425594a0511dd71c4",
      "contractAddress": null
    },
    {
      "status": "0x1",
      "cumulativeGasUsed": "0x6b667d",
      "logs": [
        {
          "address": "0x9fcb8dbbb93f908f0ff2f9b425594a0511dd71c4",
          "topics": [
            "0xee244915fe1e8426387fb7d52512a65e3d74b7efbb2d61339a662ab236c9e798",
            "0x00000000000000000000000000000000000000000000000000000000000000cc",
            "0x0000000000000000000000001ee9e2e02864595964ca0b55c1bfba689eec4d88"
          ],
          "data": "0x",
          "blockHash": "0xa8bda26d3f1df964a562023cb36f2e0f16e60db8886bbc0c5d2ea28f16111f34",
          "blockNumber": "0x671003",
          "transactionHash": "0x27fc4a2bf88f1c272b3a93e029a7dbd91d3d7ac4859f40a22df478d65481d70d",
          "transactionIndex": "0x26",
          "logIndex": "0x29",
          "removed": false
        }
      ],
      "logsBloom": "0x00000000000000200000000000000000000000000000000000000000020000080000000000000000000000000000000000000000000000100000000000000000000000000000000004000000000000000000000000000000000001000000000000000000000000000000000000000000000000000000000000000000000000000000000000200000000000400000000000000000000000000000000000000000000000000000000000000000000000000000000000000000000100000000000000000010000000000000000000000000000000000000000000000000000000000000040000000000000000000000000000000000000000000000000008000000",
      "type": "0x2",
      "transactionHash": "0x27fc4a2bf88f1c272b3a93e029a7dbd91d3d7ac4859f40a22df478d65481d70d",
      "transactionIndex": "0x26",
      "blockHash": "0xa8bda26d3f1df964a562023cb36f2e0f16e60db8886bbc0c5d2ea28f16111f34",
      "blockNumber": "0x671003",
      "gasUsed": "0xbbf2",
      "effectiveGasPrice": "0x492f8cc3eb",
      "from": "0xfbe09b7a6c6cc3a72b4ca41cdd9c88ac62bb7937",
      "to": "0x9fcb8dbbb93f908f0ff2f9b425594a0511dd71c4",
      "contractAddress": null
    },
    {
      "status": "0x1",
      "cumulativeGasUsed": "0x1a42022",
      "logs": [
        {
          "address": "0x9fcb8dbbb93f908f0ff2f9b425594a0511dd71c4",
          "topics": [
            "0xee244915fe1e8426387fb7d52512a65e3d74b7efbb2d61339a662ab236c9e798",
            "0x00000000000000000000000000000000000000000000000000000000000000cd",
            "0x00000000000000000000000004665ece39dec260886285ce4cf701e3bd576765"
          ],
          "data": "0x",
          "blockHash": "0x7c4bee503f386f7e5541a911cd91aed9f18587393e37cbea03bd500219cb23c3",
          "blockNumber": "0x671004",
          "transactionHash": "0xdcde66ddd2c6098d44c4d3d20c3f789fe8d267594b3bda102e28c55110756227",
          "transactionIndex": "0x4e",
          "logIndex": "0xb1",
          "removed": false
        }
      ],
      "logsBloom": "0x00000000000000200000000000000000000000000000000000000000000000080000000000000000000000000000000000000000000000100000000000000000000000000000000004000000000000000000000000000000000001000000000000000000000000000000000000000000000000000000000000000000000000000000000000000000000000000080000000000400020010000000000000000000000000000000000000000000000000000000000000000000000000000000000000000000000000100000000000000000000000000000000000000000000000000000000000000001000000000000000000000000000000000000000008000000",
      "type": "0x2",
      "transactionHash": "0xdcde66ddd2c6098d44c4d3d20c3f789fe8d267594b3bda102e28c55110756227",
      "transactionIndex": "0x4e",
      "blockHash": "0x7c4bee503f386f7e5541a911cd91aed9f18587393e37cbea03bd500219cb23c3",
      "blockNumber": "0x671004",
      "gasUsed": "0xbbf2",
      "effectiveGasPrice": "0x47b8ee40e6",
      "from": "0xfbe09b7a6c6cc3a72b4ca41cdd9c88ac62bb7937",
      "to": "0x9fcb8dbbb93f908f0ff2f9b425594a0511dd71c4",
      "contractAddress": null
    },
    {
      "status": "0x1",
      "cumulativeGasUsed": "0xbd8e6d",
      "logs": [
        {
          "address": "0x9fcb8dbbb93f908f0ff2f9b425594a0511dd71c4",
          "topics": [
            "0xee244915fe1e8426387fb7d52512a65e3d74b7efbb2d61339a662ab236c9e798",
            "0x00000000000000000000000000000000000000000000000000000000000000ce",
            "0x0000000000000000000000006f3c146d522bc8187813c14a4e134f2e67c430b6"
          ],
          "data": "0x",
          "blockHash": "0xdf58f3e707c6cbd4fb69150c6d83dc8d3c96dbcff465ab178143b97c9026f042",
          "blockNumber": "0x671005",
          "transactionHash": "0xad6785b82335df2b34c830d4ccf56f2c81c542e7aa849324f34c997038435883",
          "transactionIndex": "0x37",
          "logIndex": "0x43",
          "removed": false
        }
      ],
      "logsBloom": "0x00000000000000200000000000000000000000000000000000000000000000080100000000000000000000000000000000000000000000100000000000000000000000000000000004000000000000080000000000000000004001000000000000000000000000000000000000000000000000000000000000000000000000000000000000000000000000000000000000001000020000000000000000000000000000000000000000000000000000000000000000000000000000000000000000000000000000800000000000000000000000000000000000000000000000000000000000000000000000000000000000000000000000000000000008000000",
      "type": "0x2",
      "transactionHash": "0xad6785b82335df2b34c830d4ccf56f2c81c542e7aa849324f34c997038435883",
      "transactionIndex": "0x37",
      "blockHash": "0xdf58f3e707c6cbd4fb69150c6d83dc8d3c96dbcff465ab178143b97c9026f042",
      "blockNumber": "0x671005",
      "gasUsed": "0xbbf2",
      "effectiveGasPrice": "0x4f631af77c",
      "from": "0xfbe09b7a6c6cc3a72b4ca41cdd9c88ac62bb7937",
      "to": "0x9fcb8dbbb93f908f0ff2f9b425594a0511dd71c4",
      "contractAddress": null
    },
    {
      "status": "0x1",
      "cumulativeGasUsed": "0xb5f7a5",
      "logs": [
        {
          "address": "0x9fcb8dbbb93f908f0ff2f9b425594a0511dd71c4",
          "topics": [
            "0xee244915fe1e8426387fb7d52512a65e3d74b7efbb2d61339a662ab236c9e798",
            "0x00000000000000000000000000000000000000000000000000000000000000cf",
            "0x0000000000000000000000004a73a8627727f09e0e25518df6a64f58bca4cb99"
          ],
          "data": "0x",
          "blockHash": "0x1449fb2d29a7b2ed33a293fba1d2d03dba690f29f57ba0814c2e5d40dd73fa43",
          "blockNumber": "0x671006",
          "transactionHash": "0x1bb939d8c4162c44b0d852a08fc0e70d5b2aa5c567dfde8f71174927af7e71d6",
          "transactionIndex": "0x2f",
          "logIndex": "0x34",
          "removed": false
        }
      ],
      "logsBloom": "0x00000000000000200000000000000000000000000000000000000000000000080000000000000000000000000000000000000000000000100000000000000000000000000000000004000000000000000000000000000000000001000000000000000000000000000100000000000000000000000000000000000000000000000000000000008000000000000000000000000000000000000000000000000000000000000000800000000000000000000000000000000000000000000000000000040000000000000000000000000000000000000010000000000000000000000000000000000000000200000000000000000000000000000000000008000000",
      "type": "0x2",
      "transactionHash": "0x1bb939d8c4162c44b0d852a08fc0e70d5b2aa5c567dfde8f71174927af7e71d6",
      "transactionIndex": "0x2f",
      "blockHash": "0x1449fb2d29a7b2ed33a293fba1d2d03dba690f29f57ba0814c2e5d40dd73fa43",
      "blockNumber": "0x671006",
      "gasUsed": "0xbbf2",
      "effectiveGasPrice": "0x51b8466249",
      "from": "0xfbe09b7a6c6cc3a72b4ca41cdd9c88ac62bb7937",
      "to": "0x9fcb8dbbb93f908f0ff2f9b425594a0511dd71c4",
      "contractAddress": null
    },
    {
      "status": "0x1",
      "cumulativeGasUsed": "0xd61dbd",
      "logs": [
        {
          "address": "0x9fcb8dbbb93f908f0ff2f9b425594a0511dd71c4",
          "topics": [
            "0xee244915fe1e8426387fb7d52512a65e3d74b7efbb2d61339a662ab236c9e798",
            "0x00000000000000000000000000000000000000000000000000000000000000d0",
            "0x000000000000000000000000477c95bfedea3eeb663edd4033ceb037f241aa69"
          ],
          "data": "0x",
          "blockHash": "0xd4af9dd586cf21b484400a79d98d1ca8e6989458309ff1584e0d670304807b47",
          "blockNumber": "0x671007",
          "transactionHash": "0xafef632ec9c0aa82aac76265ae58434e1160cca0e353734c725670b1ec35764a",
          "transactionIndex": "0x30",
          "logIndex": "0x35",
          "removed": false
        }
      ],
      "logsBloom": "0x00000000000000200000000000000000000000000000000000000000000000080000000000000000000000000000000000000000000000100000002000000000000000000000000004000000000000000000040000000000000001000000000000000000000001000000000000800000000000000000000000080000000000000000000000000000000000000000000000000000000000000000000000000000000000000000000000000000000000000000000000000000000000000000000000000000000000000000000000000000000000000000000000000000000000000000000000000000000000002000000000000000000000000000000008000000",
      "type": "0x2",
      "transactionHash": "0xafef632ec9c0aa82aac76265ae58434e1160cca0e353734c725670b1ec35764a",
      "transactionIndex": "0x30",
      "blockHash": "0xd4af9dd586cf21b484400a79d98d1ca8e6989458309ff1584e0d670304807b47",
      "blockNumber": "0x671007",
      "gasUsed": "0xbbf2",
      "effectiveGasPrice": "0x4ff80d1c05",
      "from": "0xfbe09b7a6c6cc3a72b4ca41cdd9c88ac62bb7937",
      "to": "0x9fcb8dbbb93f908f0ff2f9b425594a0511dd71c4",
      "contractAddress": null
    },
    {
      "status": "0x1",
      "cumulativeGasUsed": "0x94f325",
      "logs": [
        {
          "address": "0x9fcb8dbbb93f908f0ff2f9b425594a0511dd71c4",
          "topics": [
            "0xee244915fe1e8426387fb7d52512a65e3d74b7efbb2d61339a662ab236c9e798",
            "0x00000000000000000000000000000000000000000000000000000000000000d1",
            "0x0000000000000000000000009928e7f574fcff95ff5bc2475e67ccce913d26e7"
          ],
          "data": "0x",
          "blockHash": "0xc7733a4467a2f20fb99b0d9b615f221abb200c11d030b9d90e14007cd837280e",
          "blockNumber": "0x671008",
          "transactionHash": "0xc80aba8ad9138743d3bd392285e560a16b051a97bf3db446217a2da192a307a8",
          "transactionIndex": "0x3d",
          "logIndex": "0x45",
          "removed": false
        }
      ],
      "logsBloom": "0x00000000000000200000000000000000000000000000000000000000000000080000000000000000000000000000000000000000000000100000000000000000000000000000000004000000000000000000000000000000000001000000000000000000000000000000000000000000000000000000000000000000000000000000000000000000000000000000000000000000000000000000000000080000000000000100000000000000000000000000000000000000000000000000000000000000000000000000000000000000000000008000000000000002000000000000000000000000000000000002000000000000000000000000000008000000",
      "type": "0x2",
      "transactionHash": "0xc80aba8ad9138743d3bd392285e560a16b051a97bf3db446217a2da192a307a8",
      "transactionIndex": "0x3d",
      "blockHash": "0xc7733a4467a2f20fb99b0d9b615f221abb200c11d030b9d90e14007cd837280e",
      "blockNumber": "0x671008",
      "gasUsed": "0xbbf2",
      "effectiveGasPrice": "0x4f7c042b91",
      "from": "0xfbe09b7a6c6cc3a72b4ca41cdd9c88ac62bb7937",
      "to": "0x9fcb8dbbb93f908f0ff2f9b425594a0511dd71c4",
      "contractAddress": null
    },
    {
      "status": "0x1",
      "cumulativeGasUsed": "0x7d7934",
      "logs": [
        {
          "address": "0x9fcb8dbbb93f908f0ff2f9b425594a0511dd71c4",
          "topics": [
            "0xee244915fe1e8426387fb7d52512a65e3d74b7efbb2d61339a662ab236c9e798",
            "0x00000000000000000000000000000000000000000000000000000000000000d2",
            "0x000000000000000000000000d9738b3a188928b3ff8c53a59e00720cd678704d"
          ],
          "data": "0x",
          "blockHash": "0x5c5a21e8a31fe2661641961e49446d7568b2d3720ea0fdfff36752656c0fb6c4",
          "blockNumber": "0x671009",
          "transactionHash": "0xf74f7b7c86f1525a32b221a40d95786f716d0a6df58f390e602bef67ec7ac9c4",
          "transactionIndex": "0x24",
          "logIndex": "0x54",
          "removed": false
        }
      ],
      "logsBloom": "0x00000004000000200040000000000000000000000000000000000000000000080000000000000000001000000000000000000000000000100000000000010000000000000000000004000000000000000000000000000000000001000000000000000000000000000000000000000000000000000000000000000000000000000000000000000000000000000000000000000000000000000000000000000000000000000000000000000000000000000000000000000000000000000200000000000000000000000000000000000000000000000000000000000000000000000000000000000000000000000000000000000000000000000040000008000000",
      "type": "0x2",
      "transactionHash": "0xf74f7b7c86f1525a32b221a40d95786f716d0a6df58f390e602bef67ec7ac9c4",
      "transactionIndex": "0x24",
      "blockHash": "0x5c5a21e8a31fe2661641961e49446d7568b2d3720ea0fdfff36752656c0fb6c4",
      "blockNumber": "0x671009",
      "gasUsed": "0xbbe6",
      "effectiveGasPrice": "0x4c8264a1f0",
      "from": "0xfbe09b7a6c6cc3a72b4ca41cdd9c88ac62bb7937",
      "to": "0x9fcb8dbbb93f908f0ff2f9b425594a0511dd71c4",
      "contractAddress": null
    },
    {
      "status": "0x1",
      "cumulativeGasUsed": "0xa3334e",
      "logs": [
        {
          "address": "0x9fcb8dbbb93f908f0ff2f9b425594a0511dd71c4",
          "topics": [
            "0xee244915fe1e8426387fb7d52512a65e3d74b7efbb2d61339a662ab236c9e798",
            "0x00000000000000000000000000000000000000000000000000000000000000d3",
            "0x0000000000000000000000001a142623399c7c63bf0ccea3c033ded60b2eddbe"
          ],
          "data": "0x",
          "blockHash": "0x7c5dd69c15ed0bf90560e05bce604734cf88642bbea36078c5bee85a7eff73d6",
          "blockNumber": "0x67100a",
          "transactionHash": "0x049140264b26de176590f3c77a502ede75a7f4d96c481ce0eabc9f18971981e3",
          "transactionIndex": "0x2d",
          "logIndex": "0x3c",
          "removed": false
        }
      ],
      "logsBloom": "0x00000000000000200004000000000000000000000000000000000000000000080000000000000000020000000000000000000000000000100000000000000000000000000000000004000000000000000000000000000000000001000000000000000000000000000000000000000000000000000000000000000000800000000000000000000000000000000000000000000000000000000000000000000000000000000000000000000000000000000000000000000000000000000000000000000000000000000000000000000000000000001000000000000000000000000000000001000000000000004000000000000000000000000000000008000000",
      "type": "0x2",
      "transactionHash": "0x049140264b26de176590f3c77a502ede75a7f4d96c481ce0eabc9f18971981e3",
      "transactionIndex": "0x2d",
      "blockHash": "0x7c5dd69c15ed0bf90560e05bce604734cf88642bbea36078c5bee85a7eff73d6",
      "blockNumber": "0x67100a",
      "gasUsed": "0xbbf2",
      "effectiveGasPrice": "0x48d3b3e521",
      "from": "0xfbe09b7a6c6cc3a72b4ca41cdd9c88ac62bb7937",
      "to": "0x9fcb8dbbb93f908f0ff2f9b425594a0511dd71c4",
      "contractAddress": null
    },
    {
      "status": "0x1",
      "cumulativeGasUsed": "0x5d4e95",
      "logs": [
        {
          "address": "0x9fcb8dbbb93f908f0ff2f9b425594a0511dd71c4",
          "topics": [
            "0xee244915fe1e8426387fb7d52512a65e3d74b7efbb2d61339a662ab236c9e798",
            "0x00000000000000000000000000000000000000000000000000000000000000d4",
            "0x000000000000000000000000979b75bab70e08e3697ee966a9e66e236651aa3f"
          ],
          "data": "0x",
          "blockHash": "0xc41794eacf3cf84406b1a0c683e58f537b706c70120cd2adbb45fe808f3fd16a",
          "blockNumber": "0x67100b",
          "transactionHash": "0x6f70e655b2201424e372b3fd516389688b11e6df10899256ba790d9f8a1b5641",
          "transactionIndex": "0x2c",
          "logIndex": "0x2a",
          "removed": false
        }
      ],
      "logsBloom": "0x00000000000000200000000000000001000000000000000000000000000000080000000000000000000200000000000000000000000000100000000000000000000000000000000004000000000000000000000000000000000001000000000000000000000000000000000000000000000000000000000000000000000000000000000200000000000000000000001000000000000000000000000000000000000000000000000000000000008000000000200000000000000000000000000000000000000000000000000000000000000000000000000000000000000000000000000000000000000000000000000000000000000000000000000008000000",
      "type": "0x2",
      "transactionHash": "0x6f70e655b2201424e372b3fd516389688b11e6df10899256ba790d9f8a1b5641",
      "transactionIndex": "0x2c",
      "blockHash": "0xc41794eacf3cf84406b1a0c683e58f537b706c70120cd2adbb45fe808f3fd16a",
      "blockNumber": "0x67100b",
      "gasUsed": "0xbbf2",
      "effectiveGasPrice": "0x49fc27f8a3",
      "from": "0xfbe09b7a6c6cc3a72b4ca41cdd9c88ac62bb7937",
      "to": "0x9fcb8dbbb93f908f0ff2f9b425594a0511dd71c4",
      "contractAddress": null
    },
    {
      "status": "0x1",
      "cumulativeGasUsed": "0x192a124",
      "logs": [
        {
          "address": "0x9fcb8dbbb93f908f0ff2f9b425594a0511dd71c4",
          "topics": [
            "0xee244915fe1e8426387fb7d52512a65e3d74b7efbb2d61339a662ab236c9e798",
            "0x00000000000000000000000000000000000000000000000000000000000000d5",
            "0x0000000000000000000000005ba952b03bc2006f1a3856094f373dcef1f683bb"
          ],
          "data": "0x",
          "blockHash": "0xbbcca557974472781101b9b22fce2911112e8519f2365e9ed71bf31dcec77d64",
          "blockNumber": "0x67100c",
          "transactionHash": "0xc48d603d818d46285d53785ac49ef1c94f42c204d4088ed126e869ab98d45e63",
          "transactionIndex": "0x51",
          "logIndex": "0x96",
          "removed": false
        }
      ],
      "logsBloom": "0x00000000000000200000000000000000000100000000000000000000000000080000000000000000000000000000000000000000000000100000000000000000000002000000000004000000000000000000000000000000000001001000000000000000000000000000000000000000000000000000000000000000000000000000000000000000000000000000000000000000000000000000000000000000000000000000000000000000000000000000000000000000000000000000000000000000000400000000000000000020000000000000000000000000000000000000000000000000000000000800000000000000000000000000000008000000",
      "type": "0x2",
      "transactionHash": "0xc48d603d818d46285d53785ac49ef1c94f42c204d4088ed126e869ab98d45e63",
      "transactionIndex": "0x51",
      "blockHash": "0xbbcca557974472781101b9b22fce2911112e8519f2365e9ed71bf31dcec77d64",
      "blockNumber": "0x67100c",
      "gasUsed": "0xbbe6",
      "effectiveGasPrice": "0x4861e6f6a4",
      "from": "0xfbe09b7a6c6cc3a72b4ca41cdd9c88ac62bb7937",
      "to": "0x9fcb8dbbb93f908f0ff2f9b425594a0511dd71c4",
      "contractAddress": null
    },
    {
      "status": "0x1",
      "cumulativeGasUsed": "0x981978",
      "logs": [
        {
          "address": "0x9fcb8dbbb93f908f0ff2f9b425594a0511dd71c4",
          "topics": [
            "0xee244915fe1e8426387fb7d52512a65e3d74b7efbb2d61339a662ab236c9e798",
            "0x00000000000000000000000000000000000000000000000000000000000000d6",
            "0x000000000000000000000000e9fd65d3beb49adf17d4088657d7596f1dd3d9ca"
          ],
          "data": "0x",
          "blockHash": "0x96d741ff26c7a313d1e8f4ad81c3bcac3c1ec3c19636eb201dde1963b8d1b40f",
          "blockNumber": "0x67100d",
          "transactionHash": "0x6749028ff4bd3e8c94eecb5bec42d05aaf589aa26fa322bdff038972b4fabbdb",
          "transactionIndex": "0x25",
          "logIndex": "0x30",
          "removed": false
        }
      ],
      "logsBloom": "0x00000000000000200000000000000000000000800000000000000000000000080000000000008000000000000000000000000020000000100000000000000000000000000000000004000000000000000000000000000000000003000000000000000000000000000000000000000000000000000000000000000000000000000000000000000000000000000000000000000000000000000000000000000000000000000000000000000000000040000000000000000000000000000000000000000000000000000000000000000000000000000000000000000000000000000000000000000000000000000000000000000000000000008000000008000000",
      "type": "0x2",
      "transactionHash": "0x6749028ff4bd3e8c94eecb5bec42d05aaf589aa26fa322bdff038972b4fabbdb",
      "transactionIndex": "0x25",
      "blockHash": "0x96d741ff26c7a313d1e8f4ad81c3bcac3c1ec3c19636eb201dde1963b8d1b40f",
      "blockNumber": "0x67100d",
      "gasUsed": "0xbbf2",
      "effectiveGasPrice": "0x4fed5731df",
      "from": "0xfbe09b7a6c6cc3a72b4ca41cdd9c88ac62bb7937",
      "to": "0x9fcb8dbbb93f908f0ff2f9b425594a0511dd71c4",
      "contractAddress": null
    }
  ],
  "libraries": [],
  "pending": [
    "0xef37a2d40f03b66ad4484c6332d7f455fab2e4089e8964d776b4e97452a3d185"
  ],
  "returns": {},
  "timestamp": 1727229472,
  "chain": 11155111,
  "commit": "7faae47"
}