{
  "transactions": [
    {
      "hash": "0xfd0383f926b5f72752568262b62605461e8d2d5b844b1a5be4937823a486592d",
      "transactionType": "CALL",
      "contractName": null,
      "contractAddress": "0x9fcb8dbbb93f908f0ff2f9b425594a0511dd71c4",
      "function": "setReferrerAddress(uint24,address)",
      "arguments": [
        "200",
        "0x24cdc98297798B36ad1B82645002D7A081F61543"
      ],
      "transaction": {
        "from": "0xfbe09b7a6c6cc3a72b4ca41cdd9c88ac62bb7937",
        "to": "0x9fcb8dbbb93f908f0ff2f9b425594a0511dd71c4",
        "gas": "0x983a",
        "value": "0x0",
        "input": "0xa2abf7f200000000000000000000000000000000000000000000000000000000000000c800000000000000000000000024cdc98297798b36ad1b82645002d7a081f61543",
        "nonce": "0x12a",
        "chainId": "0xaa36a7"
      },
      "additionalContracts": [],
      "isFixedGasLimit": false
    },
    {
      "hash": "0xf4c30822cd60c778a88e8a8bfa3ad070bfbc5cb10fc5acd18598b52d3e1a779c",
      "transactionType": "CALL",
      "contractName": null,
      "contractAddress": "0x9fcb8dbbb93f908f0ff2f9b425594a0511dd71c4",
      "function": "setReferrerAddress(uint24,address)",
      "arguments": [
        "201",
        "0x00cbbb02dB74eEd073086F47e1c156252bE4306F"
      ],
      "transaction": {
        "from": "0xfbe09b7a6c6cc3a72b4ca41cdd9c88ac62bb7937",
        "to": "0x9fcb8dbbb93f908f0ff2f9b425594a0511dd71c4",
        "gas": "0xa11d",
        "value": "0x0",
        "input": "0xa2abf7f200000000000000000000000000000000000000000000000000000000000000c900000000000000000000000000cbbb02db74eed073086f47e1c156252be4306f",
        "nonce": "0x12b",
        "chainId": "0xaa36a7"
      },
      "additionalContracts": [],
      "isFixedGasLimit": false
    },
    {
      "hash": "0xf346a4994b722ae569e06c9859cd0cd017e94bd1e0f8092570813a8876d671c1",
      "transactionType": "CALL",
      "contractName": null,
      "contractAddress": "0x9fcb8dbbb93f908f0ff2f9b425594a0511dd71c4",
      "function": "setReferrerAddress(uint24,address)",
      "arguments": [
        "202",
        "0x6Ff92AE132E844B09DAe0CFE6cc79dBa6968D69a"
      ],
      "transaction": {
        "from": "0xfbe09b7a6c6cc3a72b4ca41cdd9c88ac62bb7937",
        "to": "0x9fcb8dbbb93f908f0ff2f9b425594a0511dd71c4",
        "gas": "0x112de",
        "value": "0x0",
        "input": "0xa2abf7f200000000000000000000000000000000000000000000000000000000000000ca0000000000000000000000006ff92ae132e844b09dae0cfe6cc79dba6968d69a",
        "nonce": "0x12c",
        "chainId": "0xaa36a7"
      },
      "additionalContracts": [],
      "isFixedGasLimit": false
    },
    {
      "hash": "0x99a3db0ff7f5aff7fe032061776bda9e41f3f458e47a386c0a27b1b3a973d3c5",
      "transactionType": "CALL",
      "contractName": null,
      "contractAddress": "0x9fcb8dbbb93f908f0ff2f9b425594a0511dd71c4",
      "function": "setReferrerAddress(uint24,address)",
      "arguments": [
        "203",
        "0x55d73bAd83eA5577fB3b7f099b0689aD034171D4"
      ],
      "transaction": {
        "from": "0xfbe09b7a6c6cc3a72b4ca41cdd9c88ac62bb7937",
        "to": "0x9fcb8dbbb93f908f0ff2f9b425594a0511dd71c4",
        "gas": "0x112de",
        "value": "0x0",
        "input": "0xa2abf7f200000000000000000000000000000000000000000000000000000000000000cb00000000000000000000000055d73bad83ea5577fb3b7f099b0689ad034171d4",
        "nonce": "0x12d",
        "chainId": "0xaa36a7"
      },
      "additionalContracts": [],
      "isFixedGasLimit": false
    },
    {
      "hash": null,
      "transactionType": "CALL",
      "contractName": null,
      "contractAddress": "0x9fcb8dbbb93f908f0ff2f9b425594a0511dd71c4",
      "function": "setReferrerAddress(uint24,address)",
      "arguments": [
        "204",
        "0x1eE9e2e02864595964CA0B55c1bFbA689EEC4D88"
      ],
      "transaction": {
        "from": "0xfbe09b7a6c6cc3a72b4ca41cdd9c88ac62bb7937",
        "to": "0x9fcb8dbbb93f908f0ff2f9b425594a0511dd71c4",
        "gas": "0x112de",
        "value": "0x0",
        "input": "0xa2abf7f200000000000000000000000000000000000000000000000000000000000000cc0000000000000000000000001ee9e2e02864595964ca0b55c1bfba689eec4d88",
        "nonce": "0x12e",
        "chainId": "0xaa36a7"
      },
      "additionalContracts": [],
      "isFixedGasLimit": false
    },
    {
      "hash": null,
      "transactionType": "CALL",
      "contractName": null,
      "contractAddress": "0x9fcb8dbbb93f908f0ff2f9b425594a0511dd71c4",
      "function": "setReferrerAddress(uint24,address)",
      "arguments": [
        "205",
        "0x04665Ece39dec260886285CE4Cf701E3bd576765"
      ],
      "transaction": {
        "from": "0xfbe09b7a6c6cc3a72b4ca41cdd9c88ac62bb7937",
        "to": "0x9fcb8dbbb93f908f0ff2f9b425594a0511dd71c4",
        "gas": "0x112de",
        "value": "0x0",
        "input": "0xa2abf7f200000000000000000000000000000000000000000000000000000000000000cd00000000000000000000000004665ece39dec260886285ce4cf701e3bd576765",
        "nonce": "0x12f",
        "chainId": "0xaa36a7"
      },
      "additionalContracts": [],
      "isFixedGasLimit": false
    },
    {
      "hash": null,
      "transactionType": "CALL",
      "contractName": null,
      "contractAddress": "0x9fcb8dbbb93f908f0ff2f9b425594a0511dd71c4",
      "function": "setReferrerAddress(uint24,address)",
      "arguments": [
        "206",
        "0x6F3C146d522bC8187813C14A4e134F2E67c430b6"
      ],
      "transaction": {
        "from": "0xfbe09b7a6c6cc3a72b4ca41cdd9c88ac62bb7937",
        "to": "0x9fcb8dbbb93f908f0ff2f9b425594a0511dd71c4",
        "gas": "0x112de",
        "value": "0x0",
        "input": "0xa2abf7f200000000000000000000000000000000000000000000000000000000000000ce0000000000000000000000006f3c146d522bc8187813c14a4e134f2e67c430b6",
        "nonce": "0x130",
        "chainId": "0xaa36a7"
      },
      "additionalContracts": [],
      "isFixedGasLimit": false
    },
    {
      "hash": null,
      "transactionType": "CALL",
      "contractName": null,
      "contractAddress": "0x9fcb8dbbb93f908f0ff2f9b425594a0511dd71c4",
      "function": "setReferrerAddress(uint24,address)",
      "arguments": [
        "207",
        "0x4A73A8627727F09E0e25518DF6A64f58BCa4Cb99"
      ],
      "transaction": {
        "from": "0xfbe09b7a6c6cc3a72b4ca41cdd9c88ac62bb7937",
        "to": "0x9fcb8dbbb93f908f0ff2f9b425594a0511dd71c4",
        "gas": "0x112de",
        "value": "0x0",
        "input": "0xa2abf7f200000000000000000000000000000000000000000000000000000000000000cf0000000000000000000000004a73a8627727f09e0e25518df6a64f58bca4cb99",
        "nonce": "0x131",
        "chainId": "0xaa36a7"
      },
      "additionalContracts": [],
      "isFixedGasLimit": false
    },
    {
      "hash": null,
      "transactionType": "CALL",
      "contractName": null,
      "contractAddress": "0x9fcb8dbbb93f908f0ff2f9b425594a0511dd71c4",
      "function": "setReferrerAddress(uint24,address)",
      "arguments": [
        "208",
        "0x477C95bfeDEa3Eeb663EDD4033CEb037F241AA69"
      ],
      "transaction": {
        "from": "0xfbe09b7a6c6cc3a72b4ca41cdd9c88ac62bb7937",
        "to": "0x9fcb8dbbb93f908f0ff2f9b425594a0511dd71c4",
        "gas": "0x112de",
        "value": "0x0",
        "input": "0xa2abf7f200000000000000000000000000000000000000000000000000000000000000d0000000000000000000000000477c95bfedea3eeb663edd4033ceb037f241aa69",
        "nonce": "0x132",
        "chainId": "0xaa36a7"
      },
      "additionalContracts": [],
      "isFixedGasLimit": false
    },
    {
      "hash": null,
      "transactionType": "CALL",
      "contractName": null,
      "contractAddress": "0x9fcb8dbbb93f908f0ff2f9b425594a0511dd71c4",
      "function": "setReferrerAddress(uint24,address)",
      "arguments": [
        "209",
        "0x9928e7f574fcFf95Ff5BC2475e67CCCe913D26e7"
      ],
      "transaction": {
        "from": "0xfbe09b7a6c6cc3a72b4ca41cdd9c88ac62bb7937",
        "to": "0x9fcb8dbbb93f908f0ff2f9b425594a0511dd71c4",
        "gas": "0x112de",
        "value": "0x0",
        "input": "0xa2abf7f200000000000000000000000000000000000000000000000000000000000000d10000000000000000000000009928e7f574fcff95ff5bc2475e67ccce913d26e7",
        "nonce": "0x133",
        "chainId": "0xaa36a7"
      },
      "additionalContracts": [],
      "isFixedGasLimit": false
    },
    {
      "hash": null,
      "transactionType": "CALL",
      "contractName": null,
      "contractAddress": "0x9fcb8dbbb93f908f0ff2f9b425594a0511dd71c4",
      "function": "setReferrerAddress(uint24,address)",
      "arguments": [
        "210",
        "0xD9738B3A188928B3fF8c53a59e00720Cd678704D"
      ],
      "transaction": {
        "from": "0xfbe09b7a6c6cc3a72b4ca41cdd9c88ac62bb7937",
        "to": "0x9fcb8dbbb93f908f0ff2f9b425594a0511dd71c4",
        "gas": "0x10388",
        "value": "0x0",
        "input": "0xa2abf7f200000000000000000000000000000000000000000000000000000000000000d2000000000000000000000000d9738b3a188928b3ff8c53a59e00720cd678704d",
        "nonce": "0x134",
        "chainId": "0xaa36a7"
      },
      "additionalContracts": [],
      "isFixedGasLimit": false
    },
    {
      "hash": null,
      "transactionType": "CALL",
      "contractName": null,
      "contractAddress": "0x9fcb8dbbb93f908f0ff2f9b425594a0511dd71c4",
      "function": "setReferrerAddress(uint24,address)",
      "arguments": [
        "211",
        "0x1A142623399c7c63bF0CCea3C033DED60B2edDBe"
      ],
      "transaction": {
        "from": "0xfbe09b7a6c6cc3a72b4ca41cdd9c88ac62bb7937",
        "to": "0x9fcb8dbbb93f908f0ff2f9b425594a0511dd71c4",
        "gas": "0x112de",
        "value": "0x0",
        "input": "0xa2abf7f200000000000000000000000000000000000000000000000000000000000000d30000000000000000000000001a142623399c7c63bf0ccea3c033ded60b2eddbe",
        "nonce": "0x135",
        "chainId": "0xaa36a7"
      },
      "additionalContracts": [],
      "isFixedGasLimit": false
    },
    {
      "hash": null,
      "transactionType": "CALL",
      "contractName": null,
      "contractAddress": "0x9fcb8dbbb93f908f0ff2f9b425594a0511dd71c4",
      "function": "setReferrerAddress(uint24,address)",
      "arguments": [
        "212",
        "0x979B75baB70E08E3697EE966A9e66e236651aA3F"
      ],
      "transaction": {
        "from": "0xfbe09b7a6c6cc3a72b4ca41cdd9c88ac62bb7937",
        "to": "0x9fcb8dbbb93f908f0ff2f9b425594a0511dd71c4",
        "gas": "0x112de",
        "value": "0x0",
        "input": "0xa2abf7f200000000000000000000000000000000000000000000000000000000000000d4000000000000000000000000979b75bab70e08e3697ee966a9e66e236651aa3f",
        "nonce": "0x136",
        "chainId": "0xaa36a7"
      },
      "additionalContracts": [],
      "isFixedGasLimit": false
    },
    {
      "hash": null,
      "transactionType": "CALL",
      "contractName": null,
      "contractAddress": "0x9fcb8dbbb93f908f0ff2f9b425594a0511dd71c4",
      "function": "setReferrerAddress(uint24,address)",
      "arguments": [
        "213",
        "0x5bA952b03bc2006F1a3856094F373DCeF1F683bb"
      ],
      "transaction": {
        "from": "0xfbe09b7a6c6cc3a72b4ca41cdd9c88ac62bb7937",
        "to": "0x9fcb8dbbb93f908f0ff2f9b425594a0511dd71c4",
        "gas": "0x10388",
        "value": "0x0",
        "input": "0xa2abf7f200000000000000000000000000000000000000000000000000000000000000d50000000000000000000000005ba952b03bc2006f1a3856094f373dcef1f683bb",
        "nonce": "0x137",
        "chainId": "0xaa36a7"
      },
      "additionalContracts": [],
      "isFixedGasLimit": false
    },
    {
      "hash": null,
      "transactionType": "CALL",
      "contractName": null,
      "contractAddress": "0x9fcb8dbbb93f908f0ff2f9b425594a0511dd71c4",
      "function": "setReferrerAddress(uint24,address)",
      "arguments": [
        "214",
        "0xe9fD65d3beb49AdF17d4088657d7596F1DD3D9Ca"
      ],
      "transaction": {
        "from": "0xfbe09b7a6c6cc3a72b4ca41cdd9c88ac62bb7937",
        "to": "0x9fcb8dbbb93f908f0ff2f9b425594a0511dd71c4",
        "gas": "0x112de",
        "value": "0x0",
        "input": "0xa2abf7f200000000000000000000000000000000000000000000000000000000000000d6000000000000000000000000e9fd65d3beb49adf17d4088657d7596f1dd3d9ca",
        "nonce": "0x138",
        "chainId": "0xaa36a7"
      },
      "additionalContracts": [],
      "isFixedGasLimit": false
    },
    {
      "hash": null,
      "transactionType": "CALL",
      "contractName": null,
      "contractAddress": "0x9fcb8dbbb93f908f0ff2f9b425594a0511dd71c4",
      "function": "setReferrerAddress(uint24,address)",
      "arguments": [
        "215",
        "0xFE36fA1294009C6C0Abd1f7F1F4E0FAcE79F5891"
      ],
      "transaction": {
        "from": "0xfbe09b7a6c6cc3a72b4ca41cdd9c88ac62bb7937",
        "to": "0x9fcb8dbbb93f908f0ff2f9b425594a0511dd71c4",
        "gas": "0x10388",
        "value": "0x0",
        "input": "0xa2abf7f200000000000000000000000000000000000000000000000000000000000000d7000000000000000000000000fe36fa1294009c6c0abd1f7f1f4e0face79f5891",
        "nonce": "0x139",
        "chainId": "0xaa36a7"
      },
      "additionalContracts": [],
      "isFixedGasLimit": false
    },
    {
      "hash": null,
      "transactionType": "CALL",
      "contractName": null,
      "contractAddress": "0x9fcb8dbbb93f908f0ff2f9b425594a0511dd71c4",
      "function": "setReferrerAddress(uint24,address)",
      "arguments": [
        "216",
        "0x3865f07d17424d08417033d5B4F97f4eDF41F2f0"
      ],
      "transaction": {
        "from": "0xfbe09b7a6c6cc3a72b4ca41cdd9c88ac62bb7937",
        "to": "0x9fcb8dbbb93f908f0ff2f9b425594a0511dd71c4",
        "gas": "0x112de",
        "value": "0x0",
        "input": "0xa2abf7f200000000000000000000000000000000000000000000000000000000000000d80000000000000000000000003865f07d17424d08417033d5b4f97f4edf41f2f0",
        "nonce": "0x13a",
        "chainId": "0xaa36a7"
      },
      "additionalContracts": [],
      "isFixedGasLimit": false
    },
    {
      "hash": null,
      "transactionType": "CALL",
      "contractName": null,
      "contractAddress": "0x9fcb8dbbb93f908f0ff2f9b425594a0511dd71c4",
      "function": "setReferrerAddress(uint24,address)",
      "arguments": [
        "217",
        "0x8084f088eBf166EBFd3df462284C530B0C9C48e8"
      ],
      "transaction": {
        "from": "0xfbe09b7a6c6cc3a72b4ca41cdd9c88ac62bb7937",
        "to": "0x9fcb8dbbb93f908f0ff2f9b425594a0511dd71c4",
        "gas": "0x112de",
        "value": "0x0",
        "input": "0xa2abf7f200000000000000000000000000000000000000000000000000000000000000d90000000000000000000000008084f088ebf166ebfd3df462284c530b0c9c48e8",
        "nonce": "0x13b",
        "chainId": "0xaa36a7"
      },
      "additionalContracts": [],
      "isFixedGasLimit": false
    },
    {
      "hash": null,
      "transactionType": "CALL",
      "contractName": null,
      "contractAddress": "0x9fcb8dbbb93f908f0ff2f9b425594a0511dd71c4",
      "function": "setReferrerAddress(uint24,address)",
      "arguments": [
        "218",
        "0x8e1343508cbA64EB1AE15C17182685b4e38F37e1"
      ],
      "transaction": {
        "from": "0xfbe09b7a6c6cc3a72b4ca41cdd9c88ac62bb7937",
        "to": "0x9fcb8dbbb93f908f0ff2f9b425594a0511dd71c4",
        "gas": "0x112de",
        "value": "0x0",
        "input": "0xa2abf7f200000000000000000000000000000000000000000000000000000000000000da0000000000000000000000008e1343508cba64eb1ae15c17182685b4e38f37e1",
        "nonce": "0x13c",
        "chainId": "0xaa36a7"
      },
      "additionalContracts": [],
      "isFixedGasLimit": false
    },
    {
      "hash": null,
      "transactionType": "CALL",
      "contractName": null,
      "contractAddress": "0x9fcb8dbbb93f908f0ff2f9b425594a0511dd71c4",
      "function": "setReferrerAddress(uint24,address)",
      "arguments": [
        "219",
        "0x0274F78B2372d6d6d1a6d3777D9ee04FfDb99162"
      ],
      "transaction": {
        "from": "0xfbe09b7a6c6cc3a72b4ca41cdd9c88ac62bb7937",
        "to": "0x9fcb8dbbb93f908f0ff2f9b425594a0511dd71c4",
        "gas": "0x112de",
        "value": "0x0",
        "input": "0xa2abf7f200000000000000000000000000000000000000000000000000000000000000db0000000000000000000000000274f78b2372d6d6d1a6d3777d9ee04ffdb99162",
        "nonce": "0x13d",
        "chainId": "0xaa36a7"
      },
      "additionalContracts": [],
      "isFixedGasLimit": false
    },
    {
      "hash": null,
      "transactionType": "CALL",
      "contractName": null,
      "contractAddress": "0x9fcb8dbbb93f908f0ff2f9b425594a0511dd71c4",
      "function": "setReferrerAddress(uint24,address)",
      "arguments": [
        "220",
        "0xdC63B8d8A4ecB425a569156d6a0B7F87360C8ddF"
      ],
      "transaction": {
        "from": "0xfbe09b7a6c6cc3a72b4ca41cdd9c88ac62bb7937",
        "to": "0x9fcb8dbbb93f908f0ff2f9b425594a0511dd71c4",
        "gas": "0x112de",
        "value": "0x0",
        "input": "0xa2abf7f200000000000000000000000000000000000000000000000000000000000000dc000000000000000000000000dc63b8d8a4ecb425a569156d6a0b7f87360c8ddf",
        "nonce": "0x13e",
        "chainId": "0xaa36a7"
      },
      "additionalContracts": [],
      "isFixedGasLimit": false
    },
    {
      "hash": null,
      "transactionType": "CALL",
      "contractName": null,
      "contractAddress": "0x9fcb8dbbb93f908f0ff2f9b425594a0511dd71c4",
      "function": "setReferrerAddress(uint24,address)",
      "arguments": [
        "221",
        "0xd566Ac97be0aB14D23ca9E5bfCe7DAa264eCcB73"
      ],
      "transaction": {
        "from": "0xfbe09b7a6c6cc3a72b4ca41cdd9c88ac62bb7937",
        "to": "0x9fcb8dbbb93f908f0ff2f9b425594a0511dd71c4",
        "gas": "0x112de",
        "value": "0x0",
        "input": "0xa2abf7f200000000000000000000000000000000000000000000000000000000000000dd000000000000000000000000d566ac97be0ab14d23ca9e5bfce7daa264eccb73",
        "nonce": "0x13f",
        "chainId": "0xaa36a7"
      },
      "additionalContracts": [],
      "isFixedGasLimit": false
    },
    {
      "hash": null,
      "transactionType": "CALL",
      "contractName": null,
      "contractAddress": "0x9fcb8dbbb93f908f0ff2f9b425594a0511dd71c4",
      "function": "setReferrerAddress(uint24,address)",
      "arguments": [
        "222",
        "0x6CFf836559e5aF7dCA1528dCb23E2692C4094A76"
      ],
      "transaction": {
        "from": "0xfbe09b7a6c6cc3a72b4ca41cdd9c88ac62bb7937",
        "to": "0x9fcb8dbbb93f908f0ff2f9b425594a0511dd71c4",
        "gas": "0x112de",
        "value": "0x0",
        "input": "0xa2abf7f200000000000000000000000000000000000000000000000000000000000000de0000000000000000000000006cff836559e5af7dca1528dcb23e2692c4094a76",
        "nonce": "0x140",
        "chainId": "0xaa36a7"
      },
      "additionalContracts": [],
      "isFixedGasLimit": false
    },
    {
      "hash": null,
      "transactionType": "CALL",
      "contractName": null,
      "contractAddress": "0x9fcb8dbbb93f908f0ff2f9b425594a0511dd71c4",
      "function": "setReferrerAddress(uint24,address)",
      "arguments": [
        "223",
        "0x7E9948f74E9752F7F48382aafC833FabC9Ab3B22"
      ],
      "transaction": {
        "from": "0xfbe09b7a6c6cc3a72b4ca41cdd9c88ac62bb7937",
        "to": "0x9fcb8dbbb93f908f0ff2f9b425594a0511dd71c4",
        "gas": "0x112de",
        "value": "0x0",
        "input": "0xa2abf7f200000000000000000000000000000000000000000000000000000000000000df0000000000000000000000007e9948f74e9752f7f48382aafc833fabc9ab3b22",
        "nonce": "0x141",
        "chainId": "0xaa36a7"
      },
      "additionalContracts": [],
      "isFixedGasLimit": false
    },
    {
      "hash": null,
      "transactionType": "CALL",
      "contractName": null,
      "contractAddress": "0x9fcb8dbbb93f908f0ff2f9b425594a0511dd71c4",
      "function": "setReferrerAddress(uint24,address)",
      "arguments": [
        "224",
        "0x5ea24a8b88B3352920cc0397dc56feD4a586eb04"
      ],
      "transaction": {
        "from": "0xfbe09b7a6c6cc3a72b4ca41cdd9c88ac62bb7937",
        "to": "0x9fcb8dbbb93f908f0ff2f9b425594a0511dd71c4",
        "gas": "0x112de",
        "value": "0x0",
        "input": "0xa2abf7f200000000000000000000000000000000000000000000000000000000000000e00000000000000000000000005ea24a8b88b3352920cc0397dc56fed4a586eb04",
        "nonce": "0x142",
        "chainId": "0xaa36a7"
      },
      "additionalContracts": [],
      "isFixedGasLimit": false
    },
    {
      "hash": null,
      "transactionType": "CALL",
      "contractName": null,
      "contractAddress": "0x9fcb8dbbb93f908f0ff2f9b425594a0511dd71c4",
      "function": "setReferrerAddress(uint24,address)",
      "arguments": [
        "225",
        "0x71D2f75510FA7B5D09D9a763BfAAc0B12887cE29"
      ],
      "transaction": {
        "from": "0xfbe09b7a6c6cc3a72b4ca41cdd9c88ac62bb7937",
        "to": "0x9fcb8dbbb93f908f0ff2f9b425594a0511dd71c4",
        "gas": "0x112de",
        "value": "0x0",
        "input": "0xa2abf7f200000000000000000000000000000000000000000000000000000000000000e100000000000000000000000071d2f75510fa7b5d09d9a763bfaac0b12887ce29",
        "nonce": "0x143",
        "chainId": "0xaa36a7"
      },
      "additionalContracts": [],
      "isFixedGasLimit": false
    },
    {
      "hash": null,
      "transactionType": "CALL",
      "contractName": null,
      "contractAddress": "0x9fcb8dbbb93f908f0ff2f9b425594a0511dd71c4",
      "function": "setReferrerAddress(uint24,address)",
      "arguments": [
        "226",
        "0x6d882925377e9fA250FFd6b62164AB4084DBbCB7"
      ],
      "transaction": {
        "from": "0xfbe09b7a6c6cc3a72b4ca41cdd9c88ac62bb7937",
        "to": "0x9fcb8dbbb93f908f0ff2f9b425594a0511dd71c4",
        "gas": "0x112de",
        "value": "0x0",
        "input": "0xa2abf7f200000000000000000000000000000000000000000000000000000000000000e20000000000000000000000006d882925377e9fa250ffd6b62164ab4084dbbcb7",
        "nonce": "0x144",
        "chainId": "0xaa36a7"
      },
      "additionalContracts": [],
      "isFixedGasLimit": false
    },
    {
      "hash": null,
      "transactionType": "CALL",
      "contractName": null,
      "contractAddress": "0x9fcb8dbbb93f908f0ff2f9b425594a0511dd71c4",
      "function": "setReferrerAddress(uint24,address)",
      "arguments": [
        "227",
        "0xe7B09bAba6B33f6295E34371DFAFF735918bAF49"
      ],
      "transaction": {
        "from": "0xfbe09b7a6c6cc3a72b4ca41cdd9c88ac62bb7937",
        "to": "0x9fcb8dbbb93f908f0ff2f9b425594a0511dd71c4",
        "gas": "0x112de",
        "value": "0x0",
        "input": "0xa2abf7f200000000000000000000000000000000000000000000000000000000000000e3000000000000000000000000e7b09baba6b33f6295e34371dfaff735918baf49",
        "nonce": "0x145",
        "chainId": "0xaa36a7"
      },
      "additionalContracts": [],
      "isFixedGasLimit": false
    },
    {
      "hash": null,
      "transactionType": "CALL",
      "contractName": null,
      "contractAddress": "0x9fcb8dbbb93f908f0ff2f9b425594a0511dd71c4",
      "function": "setReferrerAddress(uint24,address)",
      "arguments": [
        "228",
        "0x698fE5C3696053Bc22AE300f1bD1C3C20a1e5c96"
      ],
      "transaction": {
        "from": "0xfbe09b7a6c6cc3a72b4ca41cdd9c88ac62bb7937",
        "to": "0x9fcb8dbbb93f908f0ff2f9b425594a0511dd71c4",
        "gas": "0x112de",
        "value": "0x0",
        "input": "0xa2abf7f200000000000000000000000000000000000000000000000000000000000000e4000000000000000000000000698fe5c3696053bc22ae300f1bd1c3c20a1e5c96",
        "nonce": "0x146",
        "chainId": "0xaa36a7"
      },
      "additionalContracts": [],
      "isFixedGasLimit": false
    },
    {
      "hash": null,
      "transactionType": "CALL",
      "contractName": null,
      "contractAddress": "0x9fcb8dbbb93f908f0ff2f9b425594a0511dd71c4",
      "function": "setReferrerAddress(uint24,address)",
      "arguments": [
        "229",
        "0xF689f6A2EB5589e772Fe3627b8F211658E8B84c9"
      ],
      "transaction": {
        "from": "0xfbe09b7a6c6cc3a72b4ca41cdd9c88ac62bb7937",
        "to": "0x9fcb8dbbb93f908f0ff2f9b425594a0511dd71c4",
        "gas": "0x112de",
        "value": "0x0",
        "input": "0xa2abf7f200000000000000000000000000000000000000000000000000000000000000e5000000000000000000000000f689f6a2eb5589e772fe3627b8f211658e8b84c9",
        "nonce": "0x147",
        "chainId": "0xaa36a7"
      },
      "additionalContracts": [],
      "isFixedGasLimit": false
    }
  ],
  "receipts": [],
  "libraries": [],
  "pending": [
    "0xfd0383f926b5f72752568262b62605461e8d2d5b844b1a5be4937823a486592d",
    "0xf4c30822cd60c778a88e8a8bfa3ad070bfbc5cb10fc5acd18598b52d3e1a779c",
    "0xf346a4994b722ae569e06c9859cd0cd017e94bd1e0f8092570813a8876d671c1",
    "0x99a3db0ff7f5aff7fe032061776bda9e41f3f458e47a386c0a27b1b3a973d3c5"
  ],
  "returns": {},
  "timestamp": 1727227178,
  "chain": 11155111,
  "commit": "7faae47"
}